:020000040000fa
:080000001c01040000000000d7
:020000040000fa
:100200005024040000000000c62704000000000085
:10021000c629040000000000a22a0400000000001b
:1002200028320400000000009c01040000000000cf
:100230004a02040000000000af95210080792200ee
:100240000001880000000000050007000c00070006
:10025000a8280200000000000040da000000fe00b4
:100260004440a900801720000000e0000300320095
:1002700000002000a00188004440a8000000060003
:1002800020882d0001002000160037006200400089
:10029000e0804800910188009001ba0062004000af
:1002a000e0804800910188009002ba00620040009e
:1002b000e08048000002eb006028e10005003a0001
:1002c0008301e90007003300038009000059eb00b7
:1002d000040037006128e100010032000082eb00d9
:1002e00005000700910188001001ba000200e0003b
:1002f000e6ff3a00000005009101880080027800c6
:1003000062004000e08048003559ba008301e900ee
:10031000080032002559ba008301e90005003200c7
:100320000400e000f4ff320015d9ba008301e900af
:10033000f1ff3a0000000600881f780002047800f0
:10034000e4000700080040004f04780000000600a9
:100350000000fa00881f7800000478003fb9970079
:10036000ea81570080007800c0192000e0000700f3
:10037000800078000000e000020035000040eb0043
:1003800000f47800010078004f0478000080fa0043
:1003900000000600800078001004e0000200320037
:1003a0005104e000feff3a0000805000000006000b
:1003b0000000e000360032000081e90012027800ff
:1003c000e30f5200320036000408a30030003a0068
:1003d000618980000100e00002003200810f5100bd
:1003e0000300310001087800628988001d00370091
:1003f00081017800110090000000e0000800320048
:10040000820f50000600310080017800100090003b
:100410000000e00002003200820f5000faff3900b5
:100420009300780001804100800f510018003900ce
:10043000820f500003003a008489400003017800d5
:1004400008003700930090000100e0000300320034
:1004500004004100808f50000d0039001101980008
:1004600092019800920090000100e0000800320024
:100470009201780003004100810f500004003a000f
:100480002a31ef00108941001000900010019800ff
:100490000000060080017800100078000200e000f3
:1004a00002003a008009e900060037001004e0006d
:1004b00002003a008080eb00020037008009e8006b
:1004c0009000fb0001007800000006000200fa0026
:1004d000f0bf9f003fb99700ea8157008f80e90085
:1004e000a0242000370107000080fa000000060069
:1004f000889fbe0080047800518980000100780048
:100500000100e0000a003a00c11221002c11e200b3
:100510001c00320011007800908f54001400360047
:100520008080e8001100e000faff3a001500370073
:100530001100e0000600320011017800928f540093
:100540000b0036008280e8001100e000faff3a005c
:1005500010017800c112210060898000820f5000d4
:100560000800320011007800908f540002003e0015
:1005700001007800150037008080e800910f11001d
:10058000f8ff3a0078898000890f5400010031009b
:100590000904780008007800e101070000017800f4
:1005a0000000e00005003a000000eb00890f540055
:1005b000060032000804d100f3ff37000819780064
:1005c000020078007aff0700cbff37004f04be001f
:1005d00000000600881f7800630440000800a100a6
:1005e0000001eb00800f540022003600e30f54009e
:1005f00001003e004800200008007800bcff070012
:10060000800078000001eb000000e00019003200db
:10061000100178009201780064805100880f50002a
:1006200003003100120090008008780007003700b6
:100630000800410080087800120290001400980021
:1006400011007800088851000809780091007800ae
:100650000100e00004003200110090008180e800f9
:100660000000e00001003a008000eb0051898800a2
:100670000281e800020078004f04780000000600c4
:1006800000047800a289800080898000800f5100da
:100690000a0031008200d0000200e800a089880032
:1006a000908980006100780000000100a28980002c
:1006b00080898000800f5100f6ff3900400321003f
:1006c0009089880020022000808988000800780036
:1006d000f5080700800178000200e0000300320006
:1006e000b15978000201e900fdff3a000000060060
:1006f0006200fa00889fbe008a9fbe000004be0010
:1007000002057800830078006a8057008b0107009b
:10071000f88f9f0089979f000000eb00909f9f003b
:100720001a80fb008005fb000000ea00cf04de0019
:100730000904780050022000808f550001003a0023
:100740000904e9000800e0000c0034000f90970055
:10075000080178008a007800ff89970003000100f3
:1007600080979f008080eb000000e0009000320046
:100770001f98970008004000909f9f0009054500c2
:1007800050022000808f5500040032000b00e00072
:10079000e3ff3a009f989700850037000000eb00c8
:1007a000f0979f00e0979f00d0979f00c0979f0011
:1007b000b0979f00a0979f00b09f9f00090037004f
:1007c000c00d2100008050000000d000210e21004b
:1007d00001004000bf98970090807000b19f9f007b
:1007e0000a05e8009a00fb00c00d21005501070032
:1007f000800078000000e000f1ff3a00a0c2b300e2
:100800009a4f10000e003a003fb897000080e900b0
:10081000b0bf9f0010007800a09f9f000000e00084
:1008200005003d000000ea00a09f9f003f98970050
:100830000020a000b09f9f000a05e80011003700cb
:10084000a19f9f000b003700af989700f0ff270093
:10085000808f5000060032006a09b9001a00fb00c0
:100860000200400001fd2f0001004000a09f9f00fa
:100870000a05e8001a00fb003a0107000000e0004a
:10088000f1ff3a00e0c2b3009a4f100003003200bb
:100890000080eb00809f9f001c003700a0c2b300c7
:1008a000da4f100007003a003fb897000080e900d7
:1008b000b0bf9f0010007800809f9f000a05e800ed
:1008c000120037000000eb00809f9f000b003700f4
:1008d0008f989700f0ff2700808f500006003200ad
:1008e0006a09b9001a00fb000200400001fd2f0058
:1008f00001004000809f9f000a05e8001a00fb00ed
:10090000180107000000e000f1ff3a009a00fb0028
:10091000201521000b0107008040eb000000e000e3
:1009200001003200ba407800817f9f0080c6b3008a
:1009300080cf500004003a009acf100002003a0025
:1009400066405000070037008f789700c0c6b3009c
:1009500080cf500005003a009acf100003003a0003
:1009600065404000807f9f000a05e800a0fb2f0043
:10097000008447003a01fb0088017800ea805700b4
:1009800060f92f000f004000fc0007000000e000ad
:1009900006003a008800780060f92f000f00400040
:1009a0007c0207000000e0005dff3d008080eb005e
:1009b000010078004f05be004f04be000080fa0021
:1009c000000006001200fa00889fbe008a9fbe0049
:1009d0008c9fbe00020478008006eb0090b79f0059
:1009e000a1b79f00830078007a805700d3000700ea
:1009f000ddb79f00c8b79f004fb097001080fb0085
:100a00008005fb000000ea004f06de000b007800c6
:100a10002e0307000000e0001a0032005fb09700cc
:100a20000000e800d0b79f002fb097001200200010
:100a30008000eb009fb19700030001008004780064
:100a4000220307000000e000f4ff3a005fb09700c7
:100a5000e18f4400080032000000e900d0b79f0099
:100a60002fb097000001eb00890078009fb197003c
:100a700003000100290037000000e900d0b79f0003
:100a8000260037000c04780050022000808f5500ab
:100a900001003a000c04e9004fb597000804e90092
:100aa0001e0033005fb097000000e800d0b79f0041
:100ab0002fb09700120020008000eb009fb197003c
:100ac00003000100800478001a00fb00808f5400ae
:100ad0000f0032005fb09700e18f44000800320041
:100ae0000000e900d0b79f002fb097000001eb0095
:100af000890078009fb197000300010002003700d1
:100b00000000e900d0b79f000d0078007f0037009b
:100b10000a05e8000804e900e2ff3b004fb0970037
:100b20008c004000c1b79f0050022000808f55000c
:100b3000040032000d0078000b00e000730032006a
:100b4000adff3700a0c2b300914f100005003a007e
:100b5000f880570011007800304178008008780054
:100b6000010037000041eb0082f79f000000eb001e
:100b7000f0b79f000e003700ffb09700f0ff27008e
:100b8000808f5000070032006a09b9004fb097000b
:100b90001000fb000200400001fd2f00010040009a
:100ba000f0b79f004fb097000000e800c0b79f006b
:100bb0004fb097001000fb006a0007000000e00043
:100bc000edff3a004fb097009000fb006014210049
:100bd0005c0007000041eb000000e0000400320070
:100be000f8805700110078003041780080087800c4
:100bf00092f79f0080c6b300804f510007003a0073
:100c0000cfb09700914f110004003a0066405000a9
:100c100090f79f000100e8000a0037009ff097005e
:100c2000c0c6b30080cf500007003a004fb1970014
:100c300092cf100004003a006540400090f79f00fa
:100c40000200e800c0b79f004fb097009000fb0083
:100c5000d01421003b0007000000e00019003a001a
:100c60005fb097000000e800d0b79f002fb097005a
:100c7000120020008000eb009fb1970003000100ec
:100c800080047800910207000000e000f4ff3a00c1
:100c90005fb09700e18f4400080032000000e900d7
:100ca000d0b79f002fb097000001eb0089007800bb
:100cb0009fb1970003000100020037000000e90027
:100cc000d0b79f007e805700880207008000780020
:100cd0000000e00005003c000d0078000d00e00081
:100ce0000a003a0001007800080037002ff0970052
:100cf0000004e000010032008d06e8004fb09700cc
:100d00000000e800c0b79f003bff37004f06be0061
:100d10004f05be004f04be000080fa000000060030
:100d20000000e0000300340067070700e10f400007
:100d300001003a000000eb00000006000108780006
:100d40000000060090cf1000050032001004e00003
:100d500001003a0000000500d0cf1000fbff3a0070
:100d6000000006000003b100030035009000b10050
:100d700001003c001000050000000500889fbe0037
:100d80008a1f78000004780001027800024578008c
:100d9000830478000200fb00cf80de005002b10027
:100da0000180b10032052000820f5000e08f580012
:100db0006b013e00006001006301370068013700ed
:100dc00067013700660137006501370064013700ad
:100dd00063013700620137006101370060013700ad
:100de0005f0137005e0137005d0137005c013700ad
:100df0005b0137005a0137005901370058013700ad
:100e000057013700560137005501370054013700ac
:100e100053013700520137005101370050013700ac
:100e20004f0137004e0137004d0137004c013700ac
:100e30004b0137004a0137004901370048013700ac
:100e400047013700460137004501370044013700ac
:100e500043013700420137004101370040013700ac
:100e60003f0137003e0137003d0137003c013700ac
:100e7000210137003a0137003901370038013700c6
:100e80003701370081003700350137003401370062
:100e900033013700320137003101370030013700ac
:100ea0002f0137002e0137002d0137002c013700ac
:100eb000150037001c0037002901370028013700d2
:100ec00027013700260137001700370024013700bb
:100ed000230137002201370021013700c20037000b
:100ee0006a003700f50037001d0137001c0137008c
:100ef000010137001a01370064003700180137007c
:100f000017013700610037006e01440012007800bd
:100f1000808141009480e900010a78000009e8001e
:100f2000914978001701370028619000c0c6b300ce
:100f3000804f51000a003a0094007800648050000d
:100f4000000a78001000be004f89de00cf91de005d
:100f50000002be000203780082037800160037000a
:100f600010c7b300804f510003003a00140178000d
:100f7000680051000500370094007800a0c6b30057
:100f8000804f510005003a0068805000000a780048
:100f90003002be002003be00070037000180e900d8
:100fa000000a78001000780000027800cfa2de006e
:100fb0000503780086037800049cbe000694be00fa
:100fc000a860900080c6b30080cf50000f003200b0
:100fd00020c6b30080cf500006003a0018407800c9
:100fe0000000fb00cf80de00010178008201780064
:100ff0000a00370040c7b30080cf50000300320022
:101000006640400080cf500006003a00180078008b
:10101000cf80de000101780082017800009cbe00d4
:101020000294be003800be002801be00e00f500050
:10103000e08f5800e00f5900e08f590004003d0098
:101040006e01440092007800d0c2b3000c0037005b
:10105000081090000018a300040032006e01440044
:1010600092007800b0c2b300050037000008a3006a
:10107000580032006e0144009200780000c2b300b4
:1010800080f478000109e8005200370028619000e0
:10109000c0c6b300804f510006003a0094007800ab
:1010a00064805000000a78001002be006033b8006f
:1010b0001600370010c7b300804f510003003a00fc
:1010c0001401780068005100050037009400780092
:1010d000a0c6b300804f510005003a006880500060
:1010e000000a78003002be002003be00070037006f
:1010f0000180e900000a7800100078000002780002
:10110000050020000600200007002000049cbe000f
:101110000694be00a860900080c6b30080cf500047
:101120000f00320020c6b30080cf500006003a0006
:10113000184078000080fb00010020000200200021
:10114000030020000a00370040c7b30080cf5000e2
:10115000030032006640400080cf500006003a0095
:101160001800780001002000020020000300200089
:10117000009cbe000294be00081090000038a3003e
:10118000140032003800be002801be00e00f5000fd
:10119000e08f5800e00f5900e08f59000d00320039
:1011a00080c7b300804f55000300320080c5b300f4
:1011b000804f550007003a006e0044009000780010
:1011c00002c3b30082f478008100e8008af478005a
:1011d0000108e80078009000008044006004980056
:1011e0008a40780041003700286090008000fb00b2
:1011f000c0062000808f5000230032000a003c000f
:1012000064005000808f50002600320004003c0033
:1012100066005000808f50000b0032002100370024
:10122000a00620000500370040072000808f5000f6
:101230001c0032001b003c0063005000808f5000f7
:1012400007003200170037001480e900000a780018
:1012500010007800485c900008487800490037008a
:101260001480e900000a78001002780068089000f5
:10127000cf80de000101780082017800009abe0074
:101280000292be003f0037001480e900000a780097
:101290001001780068089000cf80de000089be0051
:1012a000380037001480e900000a78001000780048
:1012b000680c900008087800320037001480e900bc
:1012c000000a780010007800cf80de00010178006d
:1012d00082017800009cbe000294be00780090005d
:1012e000008044006004980081c7b30008007800c3
:1012f000cd010700230037001480e900000a7800c0
:101300001000780060049800580990000200e00086
:1013100002003d001ffc0700090037008000eb00c1
:1013200073020700800078000000e0000300320034
:1013300068009000008050000100370058089000bd
:10134000100c98000f0037006e01440092007800e6
:1013500050c2b30080f178000109e80009003700ad
:10136000ee00440011007800808144000a427800b9
:101370008008e8000a04e00001003a0054c2b3000b
:10138000844978000000eb004f0578004f04be0050
:10139000000006000400fa00889fbe008a9fbe007d
:1013a0008c1f780000047800010678007008900017
:1013b000f8009000010050008808900001005000e3
:1013c0009808900001005000a8089000010050000b
:1013d000b808900001005000c80890008105500036
:1013e0000002220090bf9f0000032300a0bf9f00c7
:1013f000081090000028a30018003a000b00e0003d
:10140000160034000b0578008a047800e20f5500be
:1014100001003600290020000900e0000c00340023
:1014200058009000c801900009017800ee80570034
:1014300003000100500498008080eb000000e000f1
:101440009c0032006808900009004000600c980081
:10145000090555004240a900ebff3c0078019000cf
:101460000200e0000c00340058009000c801900019
:101470008c00780003000100500498008080eb008d
:101480000000e0008b00320068089000f800900037
:1014900001004000600c9800080890000000e00087
:1014a00016003400000578008a047800e20f550029
:1014b00001003600290020000900e0000c00340083
:1014c00058009000c801900009017800ec80570096
:1014d00003000100500498008080eb000000e00051
:1014e000740032006808900009004000600c980009
:1014f000090555004240a900ebff3c001809900087
:101500000200e0000c003400e80090005800900059
:10151000c801900003000100500498008080eb0097
:101520000000e00063003200680890009808900016
:1015300001004000600c9800280890000000e000c6
:1015400016003400000578008a047800e20f550088
:1015500001003600290020000900e0000c003400e2
:1015600058009000c801900009017800ec805700f5
:1015700003000100500498008080eb000000e000b0
:101580004c0032006808900009004000600c980090
:10159000090555004240a900ebff3c0038099000c6
:1015a0000200e0000e003400e800900018089000ef
:1015b0008080400058009000c801900003000100a6
:1015c000500498008080eb000000e00039003200f9
:1015d00068089000b808900001004000600c980076
:1015e000480890000000e000160034000005780074
:1015f0008a047800e20f550001003600290020001f
:101600000900e0000c00340058009000c801900070
:1016100009017800ec805700030001005004980095
:101620008080eb000000e00022003200680890009b
:1016300009004000600c9800090555004240a900cf
:10164000ebff3c00081090000028a30018003200b7
:101650000b00e000160034000b0578008a047800c7
:10166000e20f550001003600290020000900e000cb
:101670000c00340058009000c80190000901780067
:10168000ee80570003000100500498008080eb00ba
:101690000000e000070032006808900009004000e8
:1016a000600c9800090555004240a900ebff3c0082
:1016b0008000eb00010078004f0678004f05be0067
:1016c0004f04be000080fa00000006006900e1003f
:1016d000040035006d00e100030034000002b10099
:1016e000010032000000050010000500889fbe00c8
:1016f000000478000040eb0000549800380090008f
:10170000104078000000fb00cf80de005002b100e6
:101710000180b10032052000820f5000e08f580098
:10172000bd003e000060010097003700ba0037009e
:10173000b9003700b8003700b7003700b6003700ef
:10174000b5003700b4003700b3003700b2003700ef
:10175000b1003700b0003700af003700ae003700ef
:10176000ad003700ac003700ab003700aa003700ef
:10177000a9003700a8003700a7003700a6003700ef
:10178000a5003700a4003700a3003700a2003700ef
:10179000a1003700a00037009f0037009e003700ef
:1017a0009d0037009c0037009b0037009a003700ef
:1017b00099003700980037009700370096003700ef
:1017c00095003700940037009300370092003700ef
:1017d00091003700900037008f0037008e003700ef
:1017e000670037008c0037008b0037008a00370015
:1017f0008900370022003700870037008600370055
:1018000080003700840037008300370082003700f3
:1018100081003700800037007f0037007e003700ee
:1018200015003700160037007b0037007a003700bc
:101830007900370078003700110037007600370054
:101840007500370074003700730037000f00370051
:101850000b0037000a0037006f0037006e003700ba
:10186000470037006c003700050037006a0037007a
:1018700069003700020037008000eb00620037008b
:1018800008007800230107006100370068489000d5
:101890000004e00038003a00784890008000fb0027
:1018a000c0062000808f5000250032000a003c0056
:1018b00064005000808f50002900320004003c007a
:1018c00066005000808f50000b003200240037006b
:1018d000a00620000500370040072000808f500040
:1018e0001f0032001e003c0063005000808f50003b
:1018f000080032001a003700280090000080e9003c
:101900002004980010007800084c900008487800e7
:1019100019003700280090000080e900200498009a
:101920001002780048009000cf80de0001017800ae
:1019300082017800009abe000292be000e003700bd
:10194000280090000080e900200498001001780031
:1019500048009000cf80de000089be0006003700fe
:10196000280090000080e900200498001000780012
:101970004804900008087800110020002700370074
:101980001100200020003700480090000000e8000f
:101990004004980018009000980178001200200080
:1019a0008000eb000300010080047800110020009b
:1019b00050022000808f5400180032004800900030
:1019c000e18f4400080032000000e9004004980064
:1019d00018009000980178000001eb008900780061
:1019e00003000100020037000000e90040049800f5
:1019f00009007800e18f4400050032000000eb0090
:101a0000030037008080eb00080078000f02070019
:101a100080007800010037008000eb0001007800b2
:101a20004f04be00000006006f02b000889fbe0099
:101a30008a9fbe008c9fbe008e1f780080067800b3
:101a4000f00a2100b0b79f0080c5b30080cf5000de
:101a500002003200e2092100b2b79f00830020009b
:101a6000c3b79f00f0c6b30080cf50000a00320019
:101a70006940400080cf500005003200a4002000e3
:101a8000c4b79f0080c5b30080cf500002003a0069
:101a900000012000c0b79f008e0120003d04be0061
:101aa0002d05be0040c6b30080cf500003003200b9
:101ab0006540400080cf50000a003a00e00f54001b
:101ac000e08f5c00e00f5d00e08f5d0005003d00f1
:101ad0000800be000a01be00200507000205be0086
:101ae0000004be00e00f5400e08f5c00e00f5d00da
:101af000e08f5d0003003a005d0890000000e00008
:101b00000c0032007e012000cfb097000102780067
:101b1000cfa2de0005037800860378000800be002f
:101b20000a01be00a30507003fb297006440780099
:101b3000d0e79f004fb09700cf80de000101780012
:101b400082017800d0b79f00e1b79f00f2b79f00f5
:101b500083bf9f000203be000002be000800be005b
:101b60000a01be008c050700809ebe008296be0062
:101b7000e00f5000e08f5800e00f5900e08f59004f
:101b8000220034000e00e000200034003d00be00c2
:101b90002d01be005fb29700efb297007fb39700b0
:101ba0008fbb9700870507000205be000004be003a
:101bb0000e07e900e1fc2f008f804000010647007e
:101bc0005fb29700efb297007fb397008fbb97008b
:101bd0000800be000a01be00170607001d00100025
:101be0003fb19700624e7800889ebe008a96be0084
:101bf000e00f5400e08f5c00e00f5d00e08f5d00bf
:101c0000020034000e00e000e0ff3c00cfb197007e
:101c1000e88f510010003a000d1090000038a3002a
:101c20000d003200f70f570006003e00e4fc2f00c5
:101c30000e024200e4c07f0000c3b30080cf50001a
:101c4000050032000e07e90000c3b300e1fc2f00dd
:101c50008e80400080f07f0078011700920e98007f
:101c60006d009000e3fc2f008f8141008e804100c9
:101c700098fa07001d0e90005d089000800f560036
:101c800006003d000c005000800e98000d109000e2
:101c90000040a100801698000f0037000000e0000f
:101ca0000d003d000d10900074006000f00f50001a
:101cb00009003a007d089000fd00900001005000ee
:101cc0008d089000010050000c0750004240a90010
:101cd000010034008e0e98004f0778004f06be00ba
:101ce0004f05be004f04be006f02b10000000600a9
:101cf0000200e0000500320090cf10000400320026
:101d00000000e8000201e900fbff3a000000eb00e0
:101d1000000006002000fa00889fbe008a9fbe00d7
:101d20008c9fbe0000047800600090000000e0007e
:101d300001003c00f0ff27004bfd2f008f85450080
:101d40000000e90050049800c8009000090033002a
:101d50000100e80040049800180090009801780005
:101d6000120020008000eb000300010080047800d6
:101d7000030037000100e800400498008084eb0075
:101d8000b0022000808f5400030032000080e80081
:101d9000808f540012003a00895d7800580090004e
:101da0000000e90050049800c800900009003300ca
:101db0000100e800400498001800900098017800a5
:101dc000120020008000eb00030001008004780076
:101dd000030037000100e800400498008084eb0015
:101de0000046eb00380090009000fb00f008210056
:101df000d4fb0700f1082100010050007109210007
:101e000060c078000005fb0000032000808f5400b4
:101e100033003a001cc0b300580090000000e900f5
:101e200050049800c8009000090033000100e80049
:101e300040049800180090009801780012002000db
:101e40008000eb00030001008004780003003700ed
:101e50000100e800400498008084eb008007200027
:101e6000808f54000300320080052000808f5400d2
:101e700018003a000a00e00002003200f00f55009e
:101e800014003a000a012000580090000000e90008
:101e900050049800c8009000090033000100e800d9
:101ea000400498001800900098017800120020006b
:101eb0008000eb000300010080047800030037007d
:101ec0000100e800400498008084eb000046eb002d
:101ed000030037000a00e00001003a008a002000f9
:101ee0000a00e00007003200ea0f5500050032004a
:101ef0008a067800e80f5500030032006d012000cb
:101f000001003700ad00200000032000808f540046
:101f100015003a00580090000000e90050049800b5
:101f2000c8009000090033000100e8004004980058
:101f30001800900098017800120020008000eb004b
:101f40000300010080047800030037000100e8006e
:101f5000400498008084eb001cc0b3000003200004
:101f6000808f5400ebff32000c04e00019003200b7
:101f700000c3b300805d7800160037006d80570005
:101f8000808f550001003100895d78005800900075
:101f90000000e90050049800c800900009003300d8
:101fa0000100e800400498001800900098017800b3
:101fb000120020008000eb00030001008004780084
:101fc000030037000100e800400498008084eb0023
:101fd0001cc0b300e18f4400060032000d01780000
:101fe000890078008007210041ff07000000e00021
:101ff000e2ff3a00c8009000e18f44000800320080
:102000000100e90040049800180090009801780051
:102010000001eb0089007800030001000200370096
:102020000100e900400498000c04e00009003a00b7
:1020300040fd2f000f004000808f550003003a0044
:1020400009007800e18f4400560032000000eb00e8
:1020500054003700804deb00684890000004e00019
:102060004f003a00380090009040780040c6b3001e
:1020700080cf5000030032006540400080cf500008
:102080000a003a000a0178008000eb0040fd2f00b2
:102090000f004000680107000203be000002be00fe
:1020a00010c0b300005498000d0037000a017800fa
:1020b0008000eb0040fd2f000f004000ba01070038
:1020c0000203be000002be0010c0b300005498001e
:1020d000b800900000c7b300914f10002b003200f1
:1020e000784890008000fb00c0062000808f5000e0
:1020f000200032000a003c0064005000808f500035
:102100002200320004003c0066005000808f500026
:102110000b0032001d003700a0062000050037002c
:1021200040072000808f50001800320017003c004c
:1021300063005000808f500007003200130037000a
:10214000280090000080e90020049800100078002a
:102150000448780012003700280090000080e90051
:1021600020049800100078000498be000690be007d
:102170000b003700280090000080e9002004980040
:10218000100078000488be00050037002800900089
:102190000080e9002004980010007800040878000e
:1021a000100020004f06be004f05be004f04be00c9
:1021b0000080fa000000060081427800800178006b
:1021c000e20f510015003600934090001342780052
:1021d000d0c2b30080cf500009003a00854f5200b2
:1021e00004003e00234090001100200080cf5200e8
:1021f00014003600e38141006301510005003700ff
:1022000011002000854f52000e0032008301e800cb
:102210000201e900e20f5100ebff3e000200e00086
:102220000700320093cf120002003a001100200094
:10223000040037008301e8000201e900f9ff3a00d9
:102240008000eb000100780000000600ec874700ea
:10225000889fbe008a9fbe008c9fbe008e1f7800a4
:1022600000047800810678000040eb00a0ef9f009a
:102270000045eb008000eb00f1b79f00f8489000ac
:10228000c0c6b30080cf500002003a00100020000a
:10229000f0b79f000d00e00025003d0038009000e1
:1022a0008000e80031049800114178000040eb0004
:1022b00090ef9f00e0c5b300804f510003003a004b
:1022c00092ef9f000100e800300498003801900070
:1022d000d0c5b300924f100001003a000201e8009f
:1022e000d10520000200780096fa0700e0b79f00b1
:1022f0000000eb00efb097000100e000c8003200e2
:102300003800900000865000e20f560008003400ac
:102310000c81e9000000e800d102200074fe0700f3
:102320000000e0000200320010c0b300a0ef9f00e8
:10233000680090000000e00004003c00f0ff27006f
:102340000d00e00001003a00100020005004980049
:10235000684890000004e00078003a0028009000ef
:10236000ffb097000100e000050032000080e900a6
:10237000200498001000780080bf9f006f00370095
:102380000080e90020049800100778006b003700f7
:102390000d00e0000400340009007800cbfc0700c9
:1023a0000000e00078003a000d00e0002a003d0047
:1023b0002fe897000004e00012003a009fe8970021
:1023c0000104e00006003a00380090000c0178009b
:1023d0008900780046fe07000000e0006a00320035
:1023e0001fe897000004e00006003200380090006b
:1023f0000c017800890078003dfe07000000e00035
:1024000061003a00afe897000104e00012003200da
:102410001fe897000004e00006003a003800900032
:102420000c0178008900780063ff07000000e000dd
:10243000550032009fe897000104e00006003200da
:10244000380090000c017800890078005aff0700de
:102450000000e0004c003a007fb097000000e00070
:1024600008003a002ac0b300684890000004e00069
:1024700032003a00095f780010c0b30000549800a1
:102480002e00370089ef9f001b0020000905fb008c
:102490000a007800010032000b0078008004780008
:1024a0000000e00005003a000a00e00003003a00e6
:1024b00078805700b7f707008004e8000900e000c3
:1024c00012003c008b05e900f880550061c07f00d8
:1024d0008000fb0048019000e18f400007003200bf
:1024e0000200e9004004980018009000980178006c
:1024f0000001eb0003000100020037000200e900c8
:10250000400498008b8f5400eeff3500684890001f
:102510000004e00005003a000fb897000a187800a0
:1025200080bf9f0010c0b300005498006800900066
:102530000000e900600498002ac0b3005800900031
:102540000000e900500498004801900009003300a1
:102550000200e800400498001800900098017800fc
:10256000120020008000eb000300010080047800ce
:10257000030037000200e800400498008084eb006c
:10258000e18f440082ff3a0048019000e18f44004f
:10259000080032000200e900400498001800900092
:1025a000980178000001eb00890078000300010029
:1025b000020037000200e900400498000d00e0002e
:1025c000020032000a04e00006003a000a00fb00a4
:1025d0001100200001003a008080eb00010078002b
:1025e0000f003700684890000004e00007003a0040
:1025f000ffb097000100e000030032000fb8970021
:102600000008eb0001003700004feb000d00e00078
:1026100002003d00efb09700310498001000200048
:102620004f0778004f06be004f05be004f04be00a6
:10263000cf00b100000006000200fa00889fbe0033
:102640008a9fbe008c1f7800000578008104780006
:10265000020678000100e00001003a00ec84570017
:102660000a047800010037000804e8001800fb00a5
:1026700016fc07000000e000fbff3a0098407800dd
:10268000d0c2b30080cf500003003200bbc2b30001
:102690008bcf500002003a00814578000804e80022
:1026a0000c0178000800be003f0007000203be00d6
:1026b0000002be00990f540001003a008a0c780015
:1026c000990f550005003a00e00f5200e08f5a00c4
:1026d000e00f5b00e08f5b0017003a00b0c2b30070
:1026e00080cf550009003a00f0ff2f00f1ff2f00c6
:1026f000f2ff2f00f3ff27000020e10001a8e10016
:1027000002b0e10003b8e1000b003e00d0c2b3000c
:1027100080cf550015003a006000b800020020008c
:10272000030028000020e10001a8e10002b0e10060
:1027300003b8e1000d00360020022000d089880097
:102740006022b80006002000070028006b4040000f
:1027500080cf55000d003200f4ff2f00f5ff2f0051
:10276000f6ff2f00f7ff270008003700d0c2b300a4
:1027700080cf550005003a000400be000601be00ef
:10278000f60107000203be000002be000400be0006
:102790000601be004f0678004f05be004f04be0084
:1027a0000080fa0000000600f2874700889fbe0004
:1027b0008a9fbe008c9fbe008e1f780090b79f003e
:1027c00001077800820678000006780001003700d3
:1027d0000c06e8001c00fb00bcfb07000000e0004a
:1027e000fbff3a009c407800d0c2b30080cf50007d
:1027f0000400320000c0e90090ef9f0080cf50003d
:1028000002003a0091ef9f000c06e8000d00e00086
:1028100051003500e18f56004f0032004002200089
:10282000808f56004c003c000d00e0000d0034008d
:10283000f08f56001a003a0000c3b3009c4f1000fe
:1028400017003a009c40900080c7b30080cf500032
:102850001200320080c5b30080cf500010003a0053
:102860000e00370000c3b3009c4f1000020032007e
:10287000ad0020000a0037009c40900080c7b300e4
:1028800080cf5000040032008d00200080c5b300ce
:1028900080cf500002003a000d0120000c86e800b5
:1028a000acb79f0000c3b3009c4f100002003a0079
:1028b000dc4f1000feff32006044b8006055b800e5
:1028c000bcb79f0018003700d8b79f00e9b79f003a
:1028d000fab79f008bbf9f0060fa200080c05000b5
:1028e00081ef9f000d027800cfa2de000503780083
:1028f000860378000800be000a01be00ce02070071
:102900000fec97000802fb00cfa2de000503780061
:10291000860378000004420081844a0002054b00cf
:1029200083854b000c06e8001c00fb0057000700e5
:10293000800078000d01780060fa2000ecfc0700b0
:10294000800078000000e000dfff3a002fb0970021
:102950008c0f500007003a000e00e0000200320029
:102960009fb09700010f78006000b8006011b800b8
:102970003a0037003fb2970084005600b0fc2000b8
:102980006d4078000000fb000080500025003300ff
:102990004240a9001c003c008fea97000500fb00a4
:1029a000cf80de0001017800820178000000540031
:1029b00081805c0002015d0083815d000040e100d8
:1029c00001c8e10002d0e10003d8e1000e003900a7
:1029d0000d027800cfa2de000503780086037800a0
:1029e000ed0107005fb29700efb297007fb3970049
:1029f0008fbb97000400e1000588e1000690e1002c
:102a00000798e1000700320020022000d0898800ea
:102a1000f8ff2f00f9ff2f000805be00b5c2b30074
:102a200095ef9f00d0c2b3001feb9700804f53007b
:102a300005003a000800be000a01be004701070079
:102a40000205be000004be000e00e00001003200de
:102a50000c0f78000800be000a01be004f07780086
:102a60004f06be004f05be004f04be002f01b1004f
:102a700000000600e08980000000e0000100320054
:102a800000000100a0132100000006008000780073
:102a90001104b100030035009101b10001003c00b8
:102aa0000050a000000006000c02e20004003d00ff
:102ab0000f42ab00020032000f02ab00feff3200fb
:102ac0000040da00feff3700889fbe0080047800d7
:102ad0004411e20005003a000000eb00100007007e
:102ae0008080eb000000e0000a003500288a8000aa
:102af000880078000900e000060032000900440068
:102b0000070007008080eb000000e00001003500b6
:102b100088007800010078004f04be000000060025
:102b2000800078000001eb000000e00003003a00a4
:102b3000a0152100208a880006003700a0952100fa
:102b4000808f500002003e00218a8800010037007b
:102b50000081eb000200780000000600839f6800ff
:102b60000100e00002003d0060001000e08018005d
:102b70000300e00002003d0060011100e081190047
:102b8000930007004f00e00002003b0060001000cf
:102b9000e080180000000600889fbe008a9fbe00eb
:102ba000010578000100e0000400350008003c0049
:102bb0000000e00020003200050037006000100037
:102bc000e080180002003b0001f02c001a003700e2
:102bd0000004be006011b8006b0920000982cf001c
:102be000020039000882cf000441b000694252005f
:102bf0000e00320008003b00828171006101640018
:102c00008904d1000884d3008b05e8000442e80061
:102c1000f9ff3a00050037000804440089844c009d
:102c20008b05e9000442e900fbff3a007800070049
:102c30000af0a70001f0a0004f05be004f04be003f
:102c400000000600889fbe008a9fbe008c1f78008f
:102c5000950007009c00330003866c006450e1007f
:102c60002e0032006420e100330032006150e100a8
:102c70002f0032006120e1003100320085855500cf
:102c8000eb07b00009002000080420000500370011
:102c90000804440089844c000a0031000603430004
:102ca00087834b000001530081815b00f8ff3300f4
:102cb0000203be000800a0000804440089844c0000
:102cc000f6ff3900c639dd008301730001003200d0
:102cd000130020008904d1000884d3000998a300c0
:102ce000050032000800a7000300a0008904d100fd
:102cf0000884d3008b05e8008904d1000884d30040
:102d00000001eb000281d2004100070001f0a100a8
:102d10000cf0a70001f0a000740037006420e1006f
:102d2000760032000801be000200be00f7ff370047
:102d30006120e100710032006000b800f3ff37004d
:102d40000000200001f82700f0ff37000001be005e
:102d50006d0007000470a70003f0a1006509b10031
:102d6000160032000d0035006828e100060035002d
:102d7000f0ff2f00f1ff27000300e00013003b00ed
:102d8000010028000000050000004000818048008c
:102d90008502e900fcff3a0008003700f88f420086
:102da00002003c008000eb00000005008100d10023
:102db0000080d3008502e800fcff3a000300e00039
:102dc00002003b0060001000e080180000000600d8
:102dd0006022b800060220000000d0008180d200ee
:102de0000482d2008582d2000000a00002025200bc
:102df00083825a0003003b000202420083824a00a1
:102e00000000a1000603e900f3ff3a0000000600fd
:102e100081002000618055000b003d000b00200068
:102e200061fe2f000100e1001d003400828171006d
:102e3000610164008904d1000884d3000000e80027
:102e4000faff3a0071002000610064000300700086
:102e5000020060000900320061044400e0844c007c
:102e60000988a500050032008b05e8006808e1002c
:102e700002003a008904d1000884d300f20f200038
:102e80000258e10005003d00c75ddd00f907b20012
:102e90008980750008007800000006000bf8270004
:102ea0008b007800000005000004be00160007003b
:102eb0000003be000405be000200be0012000700b1
:102ec000844f7500000006000200be006450e1005f
:102ed000050036006420e100020036000968a30006
:102ee00001003a000800be000160a0004f06780013
:102ef0004f05be004f04be0000000600f0ff2f008b
:102f0000f1ff2700f9ff3700c70ade00f107b20022
:102f1000f50fb20008003200e1cf4200020032009b
:102f20000170a00024000500810f70000100320034
:102f30000408050044000500810f700002003a00fb
:102f4000140005008502e9000000400081c048002f
:102f5000fcff3b000170a000240005006000100091
:102f6000e080180060011900e081190000000600ef
:102f7000881f7800000478005001be004000be00a9
:102f80000000420081804a0002014b0083814b0017
:102f9000009cbe000294be00dc000700030031006c
:102fa000480090000000e800400498004f047800ba
:102fb00000000600889fbe00000478008004eb003b
:102fc0005001be004000be00d000070001003100eb
:102fd00019002000040050008580580006015900a7
:102fe00087815900009cbe000294be0048009000fa
:102ff00009005000400498004f04be000000060085
:103000001200fa00889fbe008a9fbe008c1f7800c5
:103010000205be000004be00f4b79f0085bf9f00fc
:1030200096bf9f00a7bf9f000000eb00e0b79f0086
:10303000d0b79f00c0b79f00b0b79f00a0b79f0058
:103040000006eb005fb197006fb097008000d000e2
:103050000000e00015003d00e1b79f00010078008e
:103060000200e00001003d000000a000ac000700ed
:1030700001003d000000a000af00070001003d007e
:103080000000a000b200070001003d000000a00009
:103090008100070001003d000000a000b200070011
:1030a0007c805700b2ff070014003700e1b79f0093
:1030b000010078000200e00001003d000000a000d7
:1030c0009700070001003d000000a0009a000700e3
:1030d00001003d000000a0009d00070001003d0030
:1030e0000000a0006c00070001003d000000a000ef
:1030f0009d0007007c805700aeff07006fb097006f
:103100000000e00007003500100020000100200052
:103110006011b80008047000898470000a0571000d
:103120008b8571000c06e800f0032000800f56002c
:10313000c4ff34006fb097000000e00006003d00bf
:103140007fb297008fba97001fbb9700afbb970065
:103150007c80570086ff07000802be000a03be00fd
:103160006fa897000000e00004003a002fb297001b
:10317000bfb297004fb39700dfb397000400be00c3
:103180000601be004f0678004f05be004f04be008a
:103190000080fa0000000600881f78001800200058
:1031a000881f780096ff07008f87e9004f0478009a
:1031b00000000600801feb0091ff07008f87e900e9
:1031c000000006000800fa00889fbe008a9fbe002b
:1031d0008c1f78006e00070005003d0043000700cb
:1031e000300007000c003d00330007000b003700e3
:1031f000e00f5200e08f5a00e00f5b00e08f5b00b1
:1032000006003d000400be000601be0053ff07009b
:103210000205be000004be001c0020002c000700b8
:10322000ddff07000c00e000010032004bff07004b
:103230004f0678004f05be004f04be000080fa0024
:10324000000006000800fa00889fbe008a9fbe00aa
:103250008c1f78004e00070002003d001c0020007b
:10326000220007000f00070001003d0012000700c8
:1032700017000700cfff07000c00e000010032003c
:1032800036ff07004f0678004f05be004f04be0012
:103290000080fa000000060090b79f000100d000f7
:1032a00080b79f00e00f5400e08f5c00e00f5d00ee
:1032b000e08f5d00000006000800be000a01be00ad
:1032c00026ff07000205be000004be000000060045
:1032d0000802be000a03be005fb09700efb097007f
:1032e0007fb197008fb99700000006001bff070011
:1032f0000100070000000600b0b79f00c1b79f00a3
:10330000d2b79f00e3b79f00000006000400e10071
:103310000588e1000690e1000798e1000000060042
:10332000c0b79f000200d000b0b79f00afb09700b9
:103330000100e00000000600b0b79f000100d000cf
:10334000a0b79f009fb097000100e00000000600ba
:10335000a0b79f000100d00090b79f008fb09700ea
:103360000100e0000000060080b79f000804d000c4
:103370008984d2000a85d2008b85d2005fb2970083
:10338000efb297007fb397008fbb97000000060055
:10339000d9ff07000605be000404be000006eb00ce
:1033a000e00f5000e08f5800e00f5900e08f590007
:1033b00000000600889fbe008a9fbe008c9fbe0052
:1033c0000404b8000506b8008904460060854e0074
:1033d0000606b8000a054600e0854e000706b8005c
:1033e0008b054600040eb800890446000a854e008d
:1033f000050eb8000a0546008b854e00060eb80083
:103400008b0546000416b8000a0546008b854e0061
:103410000516b8008b054600041eb8008b05460053
:103420000800be000a01be004f06be004f05be00e8
:103430004f04be00000006000800fa00889fbe008e
:103440008a9fbe00170007000605be000404be00e8
:10345000e00f5200e08f5a00e00f5b00e08f5b004e
:1034600008003d000400be000601be00bbfe0700d0
:103470000205be000004be000f000700b7fe0700f3
:10348000080007000802be000a03be000a00070089
:10349000c8ff07004f05be004f04be000080fa00c1
:1034a00000000600e0b79f00f1b79f0082bf9f00b9
:1034b00093bf9f00000006006fb09700ffb0970019
:1034c0000fb997009fb99700000006000400fa00aa
:1034d000000f78001e007800100798001e00e00022
:1034e00003003d001e00ea000000e90010079800fc
:1034f0009e009000e00120000008b800b286800025
:103500000200400050089000801f78001e009000cc
:10351000801f7800e02f2c00801f780000f720002b
:103520008bf30700e687570000f7200099f30700a8
:103530008000780000f72000ed130700f813070063
:103540000000e000fdff3a001e00e0006e003500c4
:103550009e009000e00120000008b800b2868000c4
:103560000200400040089000801f78009e009000fc
:10357000e00120000008b800b28680000200400090
:1035800030089000801f78009e009000e00120002d
:103590000008b800b28680000200400020089000b9
:1035a000801f78009e009000e00120000008b80015
:1035b000b28680000200400010089000801f780052
:1035c0009e009000e00120000008b800b286800054
:1035d0000200400000089000801f78009e009000cc
:1035e000e00120000008b800b28680000200400020
:1035f00070009000801f780060302c00801f7800e1
:1036000000f7200052f30700ee87570000f7200074
:1036100060f307008000780000f72000b413070073
:10362000bf1307000000e000fdff3a009e0090007d
:10363000e00120000008b800b286800002004000cf
:1036400060009000801f78009e009000e001200044
:103650000008b800b28680000200400050009000d0
:10366000801f78009e009000e00120000008b80054
:10367000b28680000200400040009000801f780069
:103680009e009000e00120000008b800b286800093
:103690000200400030009000801f78009e009000e3
:1036a000e00120000008b800b2868000020040005f
:1036b00020009000801f78009e009000e001200014
:1036c0000008b800b28680000200400010009000a0
:1036d000801f7800a0312c00801f780000f72000a8
:1036e0001bf30700ee87570000f7200029f30700bf
:1036f0008000780000f720007d1307008813070082
:103700000000e000fdff3a009e009000e001200074
:103710000008b800b2868000020040001000780067
:10372000801f7800e0322c00801f780000f7200016
:1037300007f30700e487570000f7200015f30700a0
:103740008000780000f72000691307007413070059
:103750000000e000fdff3a001e00e00027003500f9
:103760000000eb00207d88009e007800e001200032
:103770000008b800b286800002004000217d800071
:1037800050089000808f50001c003d009e00780083
:10379000e00120000008b800b2868000020140006d
:1037a000207d80008000d0006208900000804000f2
:1037b00010007800801f780030332c00801f7800c4
:1037c00000f72000e2f20700e487570000f720002e
:1037d000f0f207008000780000f720004413070093
:1037e0004f1307000000e000fdff3a00207d80003d
:1037f0000000e800207d8800dbff37000080fa0031
:10380000000006000200fa00000f78009e00780019
:10381000600020000008b800d2868000020040004e
:1038200010007800801f78009e0078006000200063
:103830000008b800d286800002004000100090000e
:10384000801f78001e007800801f780080332c00d5
:10385000801f780000f72000bdf20700e8875700be
:1038600000f72000cbf207008000780000f720006e
:103870001f1307002a1307000000e000fdff3a00b5
:103880000000eb00207d88009e0078006000200092
:103890000008b800d286800002004000217d800030
:1038a00010009000808f50001c003d009e007800aa
:1038b000600020000008b800d286800002014000ad
:1038c000207d80008000d000220090000080400019
:1038d00010007800801f780030342c00801f7800a2
:1038e00000f720009af20700e487570000f7200055
:1038f000a8f207008000780000f72000fc12070003
:10390000071307000000e000fdff3a00207d800063
:103910000000e800207d8800dbff37000080fa000f
:10392000000006000000fa00f100200080342c00a6
:10393000ef120700fa1207000000e000fdff3a0056
:103940000080fa00000006000000fa0034080700ba
:103950000000eb00590307000000eb0070070700b0
:103960000000eb00ab0707000000eb00608688005a
:103970000000eb0070868800d610e20024003200c0
:103980000000eb0000868800018680001086800021
:10399000808f50001a003d0001868000e001200069
:1039a0000008b800b2868000020040006008900065
:1039b0000000e0000e00320001868000e0012000df
:1039c0000008b800b2868000020040006008900045
:1039d00077f2070001868000e00120000008b800af
:1039e000b2868000820040000000eb00e0089800f2
:1039f000008680000000e80000868800e2ff3700b3
:103a0000b08680006af207000000eb00b0868800f4
:103a1000da10e200240032000000eb00208688006b
:103a20002186800030868000808f50001a003d0083
:103a300021868000600020000008b800d286800047
:103a400002004000200090000000e0000e00320064
:103a500021868000600020000008b800d286800027
:103a6000020040002000900051f2070021868000f3
:103a7000600020000008b800d2868000820040006c
:103a80000000eb00a0009800208680000000e80005
:103a900020868800e2ff3700d086800044f20700cd
:103aa0000000eb00d0868800d810e200040032004d
:103ab000c08680003ef207000000eb00c086880050
:103ac0000080fa00000006001000fa00881f78004d
:103ad00052cfbf000001fb00cf91de00f0fb2f00b2
:103ae000f1ff2f0002014000838148006207980027
:103af0007307980090032000010020006e019000e1
:103b0000fe019000800f5100818f5900ad023e00f0
:103b10006e009000fe00900000600100f001370090
:103b200074013700ac013700a6023700a502370048
:103b3000a402370031013700a2023700a10237008a
:103b4000a00237009f023700c00037009d023700f7
:103b50009c0237009b0237009a0237009902370017
:103b60009802370075023700f4013700520237001f
:103b70009402370093023700920237003c0137006d
:103b8000200037008f0237008e0237008d02370089
:103b90008c0237008b0237008a023700d8013700c9
:103ba0006401370087023700710237008502370051
:103bb0008402370023023700820237008102370077
:103bc000800237007f023700ac0037007d023700eb
:103bd0007c0237007b0237007a0237007902370017
:103be000d60037005a023700e401370029023700b7
:103bf0006702370073023700720237001301370083
:103c00001100370050ff0700200c2100801f7800b2
:103c100080352c00801f780020f520002bf2070053
:103c2000e487570011868000e00120000008b800fa
:103c300068f20700b0868800d610e20074023a00ed
:103c400038ff0700720237000000eb00000f780019
:103c50008e1f7800000c2100801f7800e02f2c00c0
:103c6000801f780020f5200018f20700e687570033
:103c700001868000e00120000008b800b2868000c4
:103c8000020040009e007800510898000000eb0000
:103c90002086880001868000e00120000008b8002e
:103ca000b2868000820040000000eb0080087800af
:103cb00001868000e00120000008b800b286800084
:103cc000820040000000eb00900098000186800018
:103cd000e00120000008b800b286800082004000a9
:103ce0000000eb00a000980001868000e0012000a9
:103cf0000008b800b2868000820040000000eb009f
:103d0000b000980001868000e00120000008b800a3
:103d1000b2868000820040000000eb00c0009800e6
:103d200001868000e00120000008b800b286800013
:103d3000820040000000eb00d00098000186800067
:103d4000e00120000008b800b28680008200400038
:103d50000000eb00e000980001868000e0012000f8
:103d60000008b800b2868000820040000000eb002e
:103d7000f000980001868000e00120000008b800f3
:103d8000b2868000820040000000eb0080089800ae
:103d900001868000e00120000008b800b2868000a3
:103da000820040000000eb0090089800018680002f
:103db000e00120000008b800b286800082004000c8
:103dc0000000eb00a008980001868000e0012000c0
:103dd0000008b800b2868000820040000000eb00be
:103de000b008980001868000e00120000008b800bb
:103df000b2868000820040000000eb00c0089800fe
:103e000001868000e00120000008b800b286800032
:103e1000020440001e0078000000d000edf1070011
:103e2000600c980001868000e00120000008b800c6
:103e3000b286800002004000600890000000e000b0
:103e4000f3013a00b7fe0700f10137000186800058
:103e5000e00120000008b800b286800000004100a8
:103e6000801f7800e0322c00801f780020f52000b1
:103e700096f10700e4875700e501370001868000ce
:103e8000e00120000008b800b28680000000410078
:103e90006c004000801f780001868000e001200057
:103ea0000008b800b2868000000041006a004000af
:103eb000801f780001868000e00120000008b80023
:103ec000b28680000000410068004000801f78003a
:103ed00001868000e00120000008b800b286800062
:103ee0000000410066004000801f780001868000cd
:103ef000e00120000008b800b28680000000410008
:103f000064004000801f780001868000e0012000ee
:103f10000008b800b2868000000041000080e80080
:103f2000801f7800a0312c00801f780020f5200031
:103f300066f10700ee875700b50137000186800063
:103f4000e00120000008b800b286800000004100b7
:103f500078004000801f780001868000e00120008a
:103f60000008b800b28680000000410076004000e2
:103f7000801f780001868000e00120000008b80062
:103f8000b28680000000410074004000801f78006d
:103f900001868000e00120000008b800b2868000a1
:103fa0000000410072004000801f78000186800000
:103fb000e00120000008b800b28680000000410047
:103fc00070004000801f780001868000e001200022
:103fd0000008b800b2868000000041006e0040007a
:103fe000801f780060302c00801f780020f52000b2
:103ff00036f10700ee875700850137000186800003
:10400000e00120000008b800b286800002024000f3
:10401000430c210013017800020078008000d000da
:104020006408900000804000801f78000201e800d2
:104030008209780030332c00801f780020f52000a2
:1040400022f10700e48757007101370000868000e5
:104050001efd070011002000d0352c0024110700a0
:104060002f1107000000e000fdff3a006801370053
:10407000c210f80080352c00801f780000f7200067
:10408000b3f00700e487570000f72000c1f00700f5
:104090008000780000f720001511070020110700ac
:1040a0000000e000fdff3a000000eb000086880001
:1040b0000186800010868000808f500006003d0041
:1040c0000086800001fd0700008680000000e800f7
:1040d00000868800f6ff370011002000d0352c0044
:1040e000031107000e1107000000e000fdff3a0079
:1040f00047013700a00c2100801f7800f0352c000c
:10410000801f780020f52000f0f00700e4875700ba
:1041100051868000600020000008b8002df10700e3
:10412000c0868800d810e20039013a00fdfd070082
:10413000370137000000eb00100798000000eb008b
:10414000200798000000eb00300798006600470049
:10415000801f780064004700801f78000e80e80010
:10416000801f7800800c2100801f780040362c00d2
:10417000801f780020f52000d4f00700ea87570060
:1041800041868000600020000008b800c2868000e0
:10419000020040001e019000020878004186800065
:1041a000600020000008b800c286800002004000c5
:1041b000ae0190001300980041868000600020004e
:1041c0000008b800c286800002004000be009000d7
:1041d000210098000e013700ca10f800f0352c00bd
:1041e000801f780000f7200059f00700e48757008f
:1041f00000f7200067f007008000780000f720003b
:10420000bb100700c61007000000e000fdff3a00e9
:104210000000eb00408688004186800050868000c8
:10422000808f500027003d00418680006000200004
:104230000008b800c2868000020040002000900004
:10424000801f780041868000600020000008b800d0
:10425000c28680000200400010009000801f78009d
:1042600041868000600020000008b800c2868000ff
:104270000200400010007800801f7800c810f8008d
:1042800040362c00801f780000f7200030f0070037
:10429000ea87570000f720003ef007008000780012
:1042a00000f72000921007009d1007000000e000ba
:1042b000fdff3a00408680000000e800408688004c
:1042c000d5ff370011002000d0352c0088100700e2
:1042d000931007000000e000fdff3a00cc0037001b
:1042e000400d2100801f780020372c00801f7800af
:1042f00020f5200075f00700e4875700c400370060
:10430000d410f80070372c00801f780000f72000d0
:104310000ff00700e487570000f720001df00700aa
:104320008000780000f72000711007007c10070063
:104330000000e000fdff3a00b5003700600c2100ee
:10434000801f7800d0372c00801f780020f52000d7
:104350005ef00700e487570031868000600020008f
:104360000008b8009bf00700d0868800da10e20051
:10437000a7003a006bfd0700a50037000080eb00a6
:10438000400798000000eb005007980068004700c5
:10439000801f78006a004700801f7800400c2100d1
:1043a000801f780080332c00801f780020f52000cb
:1043b00046f00700e8875700218680006000200053
:1043c0000008b800d2868000020040005e01900024
:1043d0001200980021868000600020000008b800cc
:1043e000d286800002004000ce01900003087800d1
:1043f0000000eb00408688002186800060002000dd
:104400000008b800d2868000020440005e009000e0
:104410000000d0006ff00700200498002186800083
:10442000600020000008b800d28680000200400032
:10443000200090000000e00075003a0039fd070000
:104440007300370021868000600020000008b8005b
:10445000d286800002024000830c21001301780004
:10446000020078008000d00024009000008040000e
:10447000801f78000201e8008209780030342c00a7
:10448000801f780020f5200010f00700e487570017
:104490005f00370020868000dafc07001100200052
:1044a000d0352c00121007001d1007000000e0009e
:1044b000fdff3a0056003700c610f800d0372c0038
:1044c000801f780000f72000a1ef0700e487570065
:1044d00000f72000afef07008000780000f7200011
:1044e000031007000e1007000000e000fdff3a0077
:1044f0000000eb0020868800218680003086800046
:10450000808f500006003d0020868000bdfc070023
:10451000208680000000e80020868800f6ff370033
:1045200011002000d0352c00f10f0700fc0f070010
:104530000000e000fdff3a0035003700a086800053
:104540000086880025050700970007003000370027
:10455000330507000000eb00580007000000eb00e7
:104560006f0407000000eb00aa04070028003700d2
:10457000200d2100801f780020382c00801f78003b
:1045800020f52000d1ef0700e48757002000370016
:10459000e100200070382c00d50f0700e00f070065
:1045a0000000e000fdff3a0011002000d0352c0093
:1045b000cf0f0700da0f07000000e000fdff3a0010
:1045c0001300370020f52000801f780060392c0090
:1045d000801f780000f720005def0700e487570098
:1045e00020f520006bef0700e10f500008003600b7
:1045f00000f7200067ef07008000780000f7200038
:10460000bb0f0700c60f07000000e000fdff3a00e7
:104610004f0478000080fa00000006000200fa0053
:10462000e7c2bf000080fb000000d1000080fb005b
:1046300061006000000f78001e0078000000d000cc
:10464000000f7800e7c2bf000080fb00610060003f
:104650009e00780080804000010f78001e007800e6
:104660000000d000000f7800e6c2bf000080fb0011
:104670004700de000080fb009e0078008080400044
:10468000010f78001e0078000000d000000f7800b5
:10469000e6c2bf000080fb004600de000080fb0099
:1046a000610060009e00780080804000010f78006b
:1046b0001e0078000080fa00000006000400fa00e6
:1046c000000f78001e007800100798000000eb0033
:1046d000207d8800207d8000e70f50000b003c000b
:1046e0001e009000e1006000207d8000c0050700f2
:1046f0001e0090000080d10010079800207d8000ef
:104700000000e800207d8800f2ff37001e009000c6
:10471000610060002f0707001e0090000080d1009c
:10472000100798001e009000610060000a07070053
:104730001e0090000080d100100798001e0090001d
:1047400061006000020007000080fa00000006001f
:104750000200fa00000f7800100020009e0f1000e9
:1047600009003a00d010e2000d003a00f6090700f7
:10477000100020008086880041e92000e0c7210069
:10478000fe0907000600370080868000e10f500018
:1047900003003a00030a07000000eb00808688004f
:1047a0000080fa00000006000000fa00c010e200dd
:1047b0003800350001868000e00120000008b800c4
:1047c000b286800002004000200890000000e00057
:1047d00007003a0001868000e00120000008b800d0
:1047e000b2868000020040007000900009040700bb
:1047f00001868000e00120000008b800b286800039
:1048000002004000400090000000e00007003a0075
:1048100001868000e00120000008b800b286800018
:104820000200400010009000bd03070001868000d8
:10483000e00120000008b800b286800002004000bd
:10484000100078009dff07000000eb0060868800e4
:104850000000eb0070868800908680006100600098
:104860000000e0000c003200008680000000ea003a
:104870000000e90015fb070011002000d0352c00d6
:104880001b0f0700260f07000000e000fdff3a00a5
:10489000010037002cfc07000080fa000000060031
:1048a0000000fa006186800000532700808f5000ce
:1048b00007003400708680000000e80070868800e1
:1048c0006086800001ad28000100400060868800fd
:1048d000608680000000e800608688000080fa00a2
:1048e000000006000a00fa00881f7800000f780018
:1048f0000080eb00100798001e00e0003500350036
:104900001e007800400798004e009000ea0f50000b
:1049100007003c004e009000e70f50000f003c00e5
:104920004e0090000000e00027003500070037002f
:104930004e009000eb0f50001e0032004e00900021
:10494000ec0f50001e0032001f0037001e007800e0
:104950004d0a0700100798001b003700820a070065
:104960001e0078000000d000f040500000ccb300e2
:10497000850a0700404798001e0078000000d0001c
:10498000ef40500000ccb3007f0a0700504798006a
:10499000790a07005e4090008000fb004e409000c6
:1049a0000000fb004800dd00008070001007980048
:1049b000050037006086800010079800020037006d
:1049c00070868000100798001e0090003007980045
:1049d0000e0037001e00ea00420620001100090008
:1049e0000200d8008000fd00beff07000004780030
:1049f0001e00ea0042062000110009000200d80053
:104a0000b8ff070000045400380798003e009000eb
:104a10004f0478000080fa00000006000800fa0049
:104a2000000f78009e007800600020000008b800a9
:104a3000c28680000200400010009000a9ff07001d
:104a40001007980010002000200798009e007800b2
:104a5000600020000008b800c2868000020040000c
:104a600010007800300798003e009000e20f5000e0
:104a7000370032003e009000e20f500007003c007b
:104a80003e0090000000e000490032003e0090002f
:104a9000e10f50003a003200500037003e00900015
:104aa000e40f5000120032003e009000e30f50006f
:104ab0001b0034003e009000e50f500047003a0014
:104ac0009e007800600020000008b800c2868000c8
:104ad000020040009e00900020009000808f500057
:104ae0003e0034000000eb00200798003b00370038
:104af0009e007800600020000008b800c286800098
:104b0000020040009e00900020009000808f500026
:104b1000320035000000eb00200798002f0037001e
:104b20009e007800600020000008b800c286800067
:104b3000020040009e00900020009000808f5000f6
:104b400026003a000000eb00200798002300370001
:104b50009e007800600020000008b800c286800037
:104b6000020040009e00900020009000808f5000c6
:104b70001a0032000000eb002007980017003700f1
:104b80009e007800600020000008b800c286800007
:104b9000020040009e00900020009000808f500096
:104ba0000e003c000000eb00200798000b003700cf
:104bb0009e007800600020000008b800c2868000d7
:104bc000020040009e00900020009000808f500066
:104bd00002003d000000eb00200798002e0090002e
:104be0000080fa00000006000600fa00000f7800be
:104bf0000000eb00100798009e0078006000200085
:104c00000008b800d2868000020040009e0090009c
:104c100010009000808f500014003d009e0078002e
:104c2000600020000008b800d28680000201400029
:104c30001e0090008000d000220090000080400004
:104c40001000780075ff07000000e000030032004c
:104c50000080eb00200798000b0037001e0090003a
:104c60000000e80010079800e3ff37009e0078007e
:104c7000600020000008b800d286800002004000da
:104c800010007800200798002e0090000080fa00a5
:104c9000000006000200fa0011002000203a2c005b
:104ca000130e07001e0e07000000e000fdff3a0093
:104cb0000000eb00000f7800b00020009e0f1000f5
:104cc00012003c001e00780006ff0700801f7800dd
:104cd000403a2c00801f780000f720009ced070070
:104ce000e487570000f72000aaed07008000780055
:104cf00000f72000fe0d0700090e07000000e0008d
:104d0000fdff3a001e0fe800ebff3700c000200057
:104d1000f4fe0700801f7800903a2c00801f780076
:104d200000f720008aed0700e487570000f7200015
:104d300098ed07008000780000f72000ec0d0700d8
:104d4000f70d07000000e000fdff3a001100200011
:104d5000d0352c00e60d0700f10d07000000e00043
:104d6000fdff3a000080fa00000006000400fa008f
:104d7000881f780001868000e00120000008b8004c
:104d8000b28680000200400070009000000f7800a2
:104d900001868000e00120000008b800b286800093
:104da000020040001000900010079800018680006b
:104db000e00120000008b800b28680000200400038
:104dc000200890000000e0002800320001868000ea
:104dd000e00120000008b800b28680000202400016
:104de00001868000e00120000008b800b286800043
:104df0000204400001868000e00120000008b800a5
:104e0000b28680008201400001868000e00120001f
:104e10000008b800b286800082034000018680004e
:104e2000e00120000008b800b286800002034000c4
:104e300001868000e00120000008b800b2868000f2
:104e400002004000c40a9000380a9000a3099000b4
:104e50001709900086089000700090007500070008
:104e6000000f78001e0078006a02070001868000ab
:104e7000e00120000008b800b28680000200400077
:104e8000400090000000e000280032000186800011
:104e9000e00120000008b800b28680000202400055
:104ea00001868000e00120000008b800b286800082
:104eb0000204400001868000e00120000008b800e4
:104ec000b28680008201400001868000e00120005f
:104ed0000008b800b286800082034000018680008e
:104ee000e00120000008b800b28680000203400004
:104ef00001868000e00120000008b800b286800032
:104f000002004000e402900058029000c3019000ab
:104f100037019000a60090001000900045000700a7
:104f2000100798001e009000fd0107009086800089
:104f3000620060000000e000110032001e009000de
:104f4000801f78001e007800801f7800d03a2c0067
:104f5000801f780000f72000fdec0700e68757006f
:104f600000f720000bed07008000780000f720001c
:104f70005f0d07006a0d07000000e000fdff3a002a
:104f80004f0478000080fa00000006000200fa00da
:104f90000000eb00207d880001868000e0012000f9
:104fa0000008b800b286800002004000217d800029
:104fb00050089000808f500016003d000186800050
:104fc000e00120000008b800b28680000201400025
:104fd000207d80008000d0006208900000804000aa
:104fe0001000780000ff0700000f78000080eb0041
:104ff0009e0f1000030032001e007800008688001b
:10500000e9fd0700207d80000000e800207d880089
:10501000e1ff370055ff07009086800064006000c4
:105020000000e000010032001aff07000080fa00d3
:10503000000006001800fa00000f78001107980021
:1050400022079800330798004407980055079800f6
:105050004e00900023fe070060079800de009000dd
:105060006e0090000080500070079800be00900015
:105070007e0090000088b900000f9800110f980082
:105080000e0890009e089000823e20000300200041
:10509000b2f60700000f9800110f98002e00900044
:1050a0006101b9000e0890009e089000820f500028
:1050b000838f5800050034002e009000cf80de0062
:1050c000000f9800110f98000b0037001e00900091
:1050d0006101b9000e0890009e089000820f5000f8
:1050e000838f580004003d001e009000cf80de003a
:1050f000000f9800110f98000e0890001e0040004d
:10510000200f9800ae08900000402000808f5000d3
:105110000300340000402000300f980009003700e1
:10512000ae08900000c02f00808f500003003d00ab
:1051300000c02f00300f9800020037002e089000aa
:10514000300f98003e0890000080fa000000060032
:105150000400fa0040c7bf000080fb00610060004f
:105160000000e000020032004007a9000000fe003d
:1051700041000700ec0c07006001070076080700fb
:105180000040eb00c50a0700a100200000452200f6
:1051900027020700813e2000607c220024020700d5
:1051a0001efd07000000e000fdff3a000000eb00dc
:1051b000000f780020fa2000020d07000000e00038
:1051c000080032001e00780021f520008100400018
:1051d00011079800a2cfbf009e0090008048780081
:1051e0001e0fe80020fa2000d2c0b300904f11003b
:1051f000f0ff3a001e00780022f5200082004000f7
:10520000a0c0b300804878001e0fe8001e007800a0
:1052100022f52000820040000040eb00804878002a
:105220001e0fe80028fa070020f52000801f7800f4
:10523000603b2c00801f780000f7200044ec070042
:10524000e487570020f5200052ec0700e10f5000e2
:10525000d3ff360000f720004eec070080007800f6
:1052600000f72000a20c0700ad0c07000000e000d2
:10527000fdff3a00caff37000000fa00c4c2a900cf
:10528000c4e2a900c522a900c582a900c542a9009f
:10529000c5a2a900c5c2a900c5e2a900c0c2a90053
:1052a000c0e2a900c122a900c182a900c142a9008f
:1052b000c1a2a900c1c2a900c1e2a900d022a900cf
:1052c000cc22a900d042a900cc42a900e2e2a90068
:1052d000e302a900e802a900e822a900dee2a90091
:1052e000df02a900e402a900e422a900e202a90069
:1052f000de02a900d602a900d622a900d642a90042
:10530000d662a900d682a900d6a2a900d6c2a90059
:10531000d6e2a900d202a900d222a900d242a90055
:10532000d262a900d282a900d2a2a900d2c2a90049
:10533000d2e2a900d1a2a900cda2a900e842a90009
:10534000e862a900e442a900e462a900de22a80004
:10535000dec2a800e4c2a800e4e2a800e502a800ba
:10536000e522a800d302a800d322a800d342a800b7
:10537000d362a800d382a800d3a2a800d3c2a800f9
:10538000d3e2a8000080fa00000006000400fa0042
:10539000fa10e2001e0032007187800080da2f00d0
:1053a000808f50001a003500718780008025200012
:1053b000808f500016003c00d602a900d622a9001a
:1053c000d642a900d662a9000000eb00d087880071
:1053d00072878000020f78001e0178000200e00052
:1053e00003003d001e0178000201ea00020f780070
:1053f000007122001e017800110009000200d8008f
:10540000ef005000609c2200e20107004b003700d3
:10541000ee10e2000b003400b08780000000e800ce
:10542000b0878800908780000000e900908788009e
:10543000f210e2000e003d0030002000908788004e
:105440000b003700b08780000000e900b0878800bb
:10545000908780000000e800908788009087800097
:10546000e30f5000020034000000eb00908788003a
:1054700090878000100798001e019000e10f5100f6
:10548000130032001e009000e10f500004003c00a9
:105490001e0190000200e000080032001a003700f0
:1054a0001e009000e20f50000e0032001e0190001e
:1054b000e30f51001000320013003700d602a9009c
:1054c000d622a800d642a900d662a8000e00370056
:1054d000d602a900d622a800d642a800d662a9000a
:1054e00009003700d602a800d622a900d642a8009b
:1054f000d662a90004003700d602a800d622a9006f
:10550000d642a900d662a8007187800080da2f00f9
:10551000808f5000090035007187800080252000b1
:10552000808f500005003c0010002000d0878800cc
:10553000f1002000609c2200960107000080fa0024
:10554000000006000400fa00fc10e2001e00320019
:105550008187800080da2f00808f50001a0035008c
:105560008187800080252000808f500016003c003d
:10557000d682a900d6a2a900d6c2a900d6e2a90067
:105580000000eb00e087880082878000020f78002f
:105590001e0178000200e00003003d001e017800bb
:1055a0000201ea00020f7800007122001e0178005b
:1055b000110009000200d800ef00500020aa2200cc
:1055c000740107004b003700f010e2000b003d00b3
:1055d000c08780000000e900c0878800a0878000a5
:1055e0000000e900a0878800f410e2000e003d00f2
:1055f00030002000a08788000b003700c0878000a3
:105600000000e800c0878800a08780000000e80054
:10561000a0878800a0878000e30f500002003400bc
:105620000000eb00a0878800a0878000100798008a
:105630001e019000e10f5100130032001e00900087
:10564000e10f500004003c001e0190000200e00049
:10565000080032001a0037001e009000e20f5000d0
:105660000e0032001e019000e30f510010003200c6
:1056700013003700d682a900d6a2a800d6c2a9007e
:10568000d6e2a8000e003700d682a900d6a2a80054
:10569000d6c2a800d6e2a90009003700d682a80029
:1056a000d6a2a900d6c2a800d6e2a90004003700fd
:1056b000d682a800d6a2a900d6c2a900d6e2a80028
:1056c0008187800080da2f00808f5000090035002c
:1056d0008187800080252000808f500005003c00dd
:1056e00010002000e0878800f100200020aa22009e
:1056f000280107000080fa00000006000000fa0000
:105700008000eb00609c2200c90007008000eb00d5
:1057100020aa2200c60007000080fa000000060050
:105720000200fa00000f78001e00e0000a003a00b4
:105730000000eb00708788008000eb00609c220076
:1057400014010700d602a900d622a900d642a9005a
:10575000d662a9002d00370080c12f009e0f1000d7
:105760000a003d0080c12f0070878800008f2d0047
:1057700072878000110009000200d8008000fd003f
:10578000609c22000301070020003700803e2000bb
:105790009e0f10000a003400803e200070878800b1
:1057a0000071220072878000110009000200d800f9
:1057b0008000fd00609c2200f60007001300370007
:1057c0001e007800708788001e00e00008003d0081
:1057d000008f2d001e017800110009000200d80082
:1057e0008000fd00609c2200ea00070007003700ef
:1057f000007122001e017800110009000200d8008b
:105800008000fd00609c2200e20007000080fa009a
:10581000000006000200fa00000f78001e00e00001
:105820000a003a000000eb00808788008000eb004f
:1058300020aa2200d7000700d682a900d6a2a9007c
:10584000d6c2a900d6e2a9002d00370080c12f00e2
:105850009e0f10000a003d0080c12f008087880045
:10586000008f2d0082878000110009000200d800ff
:105870008000fd0020aa2200c6000700200037009b
:10588000803e20009e0f10000a003400803e200061
:105890008087880000712200828780001100090043
:1058a0000200d8008000fd0020aa2200b9000700f5
:1058b000130037001e007800808788001e00e0007b
:1058c00008003d00008f2d001e0178001100090026
:1058d0000200d8008000fd0020aa2200ad000700d1
:1058e00007003700007122001e0178001100090036
:1058f0000200d8008000fd0020aa2200a5000700b9
:105900000080fa00000006000800fa00000f78008e
:10591000110798001e007800200798002e019000c3
:105920000200e00003003d002e0090000000ea00ad
:10593000200798001e019000320798003e0090005a
:105940000000e00003003d003e0190000201ea007b
:10595000320798002e0090003e0190008200400027
:10596000803e2000808f500006003c001e0090000a
:105970001e0010006aff07001e0090001e0040007d
:10598000a4ff07000080fa00000006000000fa00f3
:10599000b08780000080fa00000006000200fa00d4
:1059a000000f78001e007800b08788000080fa00a1
:1059b000000006000000fa00c08780000080fa00a6
:1059c000000006000200fa00000f78001e007800b8
:1059d000c08788000080fa00000006000000fa007e
:1059e0000000eb0080088800011120009140780041
:1059f000f0ccb30000c0600010e1b7000000eb0085
:105a000030088800205c20006008880084c0a9005d
:105a10008cc0a80011e1a8000080fa000000060078
:105a20000000fa0011e1a9000080fa000000060061
:105a30000800fa00000f780011079800f089800034
:105a4000200798002e0090000000e0000b003200bc
:105a50002e009000300090009e0f500003003a008e
:105a600011002000310798001f0037002e00900021
:105a70004000900020079800f2ff3700a0002000af
:105a8000d4ea0700200798002e0090000000e000f4
:105a900002003a0010002000f9ea07002e009000f2
:105aa0009e00900001087800ae0090000000eb001e
:105ab00090009800ae00900010c0b300c040980065
:105ac0002e0090009e007800310098002e0090007b
:105ad000f1898000410098002e009000f089880034
:105ae00011002000310798003e0090000080fa006d
:105af000000006000800fa00000f78000000eb002c
:105b000010079800f0898000200798002e00900070
:105b10000000e0001a0032002e00900030009000db
:105b20009e0f500010003a001e0090000000e000a0
:105b3000050032009e0090002e0090004000900072
:105b4000c0009800030037002e0090004000900035
:105b5000f08988002e00900015ea07001000200050
:105b600030079800080037002e00900010079800ba
:105b70002e0090004000900020079800e3ff3700bf
:105b800020002000300798003e0090000080fa00be
:105b9000000006000800fa00000f780011079800c6
:105ba000f0898000200798002e0090000000e0009f
:105bb0000e0032002e009000300090009e0f50002a
:105bc00006003a002e0090009e0090000108780028
:105bd0001000200030079800060037002e009000cb
:105be0004000900020079800efff370021002000c0
:105bf000310798003e0090000080fa000000060087
:105c00000600fa00000f7800f08980001007980065
:105c10001e0090000000e0000e0032001e00900008
:105c2000300090009e0f500006003a009e00900049
:105c30000000eb0090009800100020002007980062
:105c4000060037001e0090004000900010079800ea
:105c5000efff370020002000200798002e00900062
:105c60000080fa00000006000600fa00000f78002d
:105c7000f0898000100798001e0090000000e000ee
:105c80000e0032001e009000300090009e0f500069
:105c900006003a009e0090000040eb00c0409800d3
:105ca0001000200020079800060037001e0090001a
:105cb0004000900010079800efff37002000200000
:105cc000200798002e0090000080fa0000000600d7
